:100000000C9434000C94E2000C9451000C945100B8
:100010000C9451000C9451000C9451000C9451001C
:100020000C9451000C9451000C9451000C9451000C
:100030000C9451000C9451000C9451000C945100FC
:100040000C9451000C9451000C9451000C945100EC
:100050000C9451000C9451000C9451000C945100DC
:100060000C9451000C94510011241FBECFEFD8E026
:10007000DEBFCDBF14E0A0E0B1E0EEE6FDE002C0DF
:1000800005900D92A630B107D9F724E0A6E0B4E0C0
:1000900001C01D92AD30B207E1F70E947B000C94C5
:1000A000B5060C940000CF93DF930E941701EC017A
:1000B00085E290E09983888322E02A839C838B8366
:1000C00021E02D839F838E8325E028879A87898767
:1000D00023E02B879D878C8784E08E87E9E6F0E01C
:1000E000808182608083E89ACE010E940803CE015D
:1000F000DF91CF910895CF93DF93CDB7DEB7AD9762
:100100000FB6F894DEBF0FBECDBF8FEF87B918B81A
:1001100080E895E20E94D6010E94B10285E0E6E007
:10012000F1E0DE01119601900D928A95E1F7209A97
:1001300028988BE091E00E9401022FEF82E597E082
:10014000215080409040E1F700C0000078940E9468
:1001500053007C010E94D604AE014F5F5F4F60E008
:1001600070E0C7010E94470221E030E0AE014A5F23
:100170005F4F60E0C7010E94600110E080910604BB
:100180008823E1F3109206040FC01F5F18B9193CD1
:1001900008F010E0BE01655F7F4FC7010E94A60115
:1001A000CE010D960E940102C7010E942402811116
:1001B000ECCFAE014F5F5F4F60E070E0C7010E947F
:1001C0004702DCCF1F920F920FB60F9211242F938C
:1001D0003F934F935F936F937F938F939F93AF93CF
:1001E000BF93EF93FF9382E291E00E94010281E0CE
:1001F00080930604FF91EF91BF91AF919F918F91F2
:100200007F916F915F914F913F912F910F900FBE12
:100210000F901F901895FC01A62FB72F9C012B5F04
:100220003F4F91919D93E217F307D9F7089580E12D
:1002300090E00E94840520E1FC0111922A95E9F7E3
:100240000895CF93DF93EC01DA01E881F9815081C1
:1002500081E090E00A8002C0880F991F0A94E2F7BB
:100260008095852380836EBD0DB407FEFDCF8EB5CE
:100270008F872115310579F0FD012A0F3B1FDF0122
:1002800090819EBD0DB407FEFDCF9EB59C93319627
:10029000E217F307A1F7E881F981208181E090E07E
:1002A0000A8002C0880F991F0A94E2F7822B80838C
:1002B0008F85DF91CF91089560620E94210108959A
:1002C0000E942101089520E030E040E050E06FEF0F
:1002D0000E94210108950E9463010895FC01278571
:1002E0002E7030E035952795263031051CF4822F8D
:1002F000932F08958FEF9FEF0895CF93DF931F9271
:10030000CDB7DEB720E7298321E030E0AE014F5FB3
:100310005F4F67E00E945C010F90DF91CF910895DD
:10032000CF93DF931F92CDB7DEB7FC019785906422
:10033000998321E030E0AE014F5F5F4F67E0CF016E
:100340000E945C010F90DF91CF9108950F931F934E
:10035000CF93DF938C01EB010E946E019983888318
:10036000C8010E9490018881998199231CF41AA2E6
:1003700080E017C021E030E0AE014E5D5F4F60E6E7
:10038000C8010E9460012AA1222351F030E0AE0191
:100390004E5F5F4F61E6C8010E94210181E001C00C
:1003A00081E0DF91CF911F910F9108951092C500C8
:1003B00083E38093C40086E08093C20088E080934A
:1003C000C1000895CF93DF93FC0101900020E9F76D
:1003D0003197E81BF90B1E161F0684F4DC019C0103
:1003E0002E0F3F1FC6ECD0E0E0ECF0E09D9198832B
:1003F000908195FFFDCFA217B307C1F7DF91CF9191
:100400000895CF93DF93FC0101900020E9F7319725
:10041000E81BF90B1E161F0684F4DC019C012E0F4D
:100420003F1FC6ECD0E0E0ECF0E09D919883908116
:1004300095FFFDCFA217B307C1F78AEF91E00E94A5
:10044000E201DF91CF910895CF93DF93EC01EB812F
:10045000FC81208181E090E00D8002C0880F991F0F
:100460000A94E2F780958223808388E391E00E94DA
:100470000102CE010E946B01CE010E946E01892F04
:100480008095881F8827881FDF91CF910895DF927C
:10049000EF92FF920F931F93CF93DF9300D000D082
:1004A00000D0CDB7DEB77C01D62ECA01BE016F5F8A
:1004B0007F4F0E940B016AE06D0D25E030E0AE0138
:1004C0004F5F5F4FC7010E945C0121E030E0AE0149
:1004D0004A5F5F4F62E0C7010E94600101E010E0E7
:1004E000C80102C0880F991FDA94E2F79E81892B18
:1004F0008E8321E030E0AE014A5F5F4F62E0C701CA
:100500000E945C018FE39CE90197F1F700C00000B5
:10051000D7011396ED91FC911497808115960C905C
:1005200002C0000F111F0A94E2F7082B00838FE32B
:1005300091E00E94010226960FB6F894DEBF0FBE2E
:10054000CDBFDF91CF911F910F91FF90EF90DF9082
:1005500008958093C600E0ECF0E0808185FFFDCF38
:100560000895CF93DF9387E491E00E9401028DE527
:1005700091E00E94E201CAE0D0E08EE20E94A9026E
:100580002FEF83EC99E0215080409040E1F700C0CC
:100590000000219791F78CEF91E00E940102DF911A
:1005A000CF910895CF93DF93CDB7DEB729970FB6DC
:1005B000F894DEBF0FBECDBFFE0131969E01275FCE
:1005C0003F4F40E391E380FF02C0908301C040832E
:1005D00086953196E217F307B1F7CE0101960E9496
:1005E000A506CE0101960E94010229960FB6F89445
:1005F000DEBF0FBECDBFDF91CF910895CF93C82F3F
:10060000CB010E94E2018C2F0E94D202CF9108956B
:10061000EF92FF920F931F93CF93DF931F92CDB76B
:10062000DEB78C0189E791E00E940102D801ED91CB
:10063000FC9111972291EE24E394F12CC7011296BC
:100640000C90129702C0880F991F0A94E2F7822B30
:1006500080831396ED91FC9114972291C701159612
:100660000C90159702C0880F991F0A94E2F7822B0D
:100670008083ED91FC9111972081C70112960C9017
:10068000129702C0880F991F0A94E2F7822B808389
:100690001396ED91FC9114979081970115960C900B
:1006A00002C0220F331F0A94E2F7822F809589231C
:1006B000808388E391E00E9401028DE991E00E942D
:1006C00001028CB580618CBD8CB580648CBDD80175
:1006D0001696ED91FC9117972291C70118960C90F0
:1006E000189702C0880F991F0A94E2F7822B808323
:1006F0001996ED91FC911A972291C7011B960C90C7
:100700001B9702C0880F991F0A94E2F7822B8083FF
:100710001C96ED91FC911D9782911E960C9002C043
:10072000EE0CFF1C0A94E2F7E094E822E0828CB51C
:10073000877F8CBD8CB58B7F8CBD8CB58E7F8CBD3F
:100740008CB58D7F8CBD8DB581608DBD8CB58F7D59
:100750008CBD20E030E040E050E062EEC8010E9435
:10076000210120E030E040E050E061EEC8010E944D
:100770002101C8010E947D018FE0898384EB91E013
:100780000E940102BFEF21EE84E0B1502040804082
:10079000E1F700C0000021E030E0AE014F5F5F4FA5
:1007A00060E0C8010E945C0121E030E047E054E0D5
:1007B00060E0C8010E9460018093080480910704F2
:1007C00064ED71E090E00E94FE02809108046EEDFD
:1007D00071E090E00E94FE0288EE91E00E9401022A
:1007E0009FEFA4E3BCE09150A040B040E1F700C00F
:1007F00000008DEF91E00E9401020F2EFFE3FF2E1B
:10080000F02DF98221E030E0AE014F5F5F4F61E0F3
:10081000C8010E945C018DE092E00E94010221E08B
:1008200030E047E054E061E0C8010E94600180933D
:100830000804809107046DE272E090E00E94FE02DD
:10084000809108046EED71E090E00E94FE0288EE57
:1008500091E00E9401022FEF84E39CE02150804050
:100860009040E1F700C00000F98221E030E0AE01E5
:100870004F5F5F4F6CE1C8010E945C0185E392E02D
:100880000E94010221E030E047E054E06CE1C80141
:100890000E946001809308048091070468E572E07B
:1008A00090E00E94FE02809108046EED71E090E0FD
:1008B0000E94FE0288EE91E00E940102AFEFB4E3D5
:1008C0002CE0A150B0402040E1F700C0000084E0DF
:1008D000898321E030E0AE014F5F5F4F6DE1C801D9
:1008E0000E945C0181E692E00E94010221E030E07A
:1008F00047E054E06DE1C8010E9460018093080464
:10090000809107046FE772E090E00E94FE02809100
:1009100008046EED71E090E00E94FE0288EE91E026
:100920000E9401028FEF94E3ACE081509040A04020
:10093000E1F700C00000198221E030E0AE014F5F16
:100940005F4F62E0C8010E945C018AE892E00E9469
:10095000010221E030E047E054E062E0C8010E947B
:10096000600180930804809107046FE772E090E0D3
:100970000E94FE02809108046EED71E090E00E94FA
:10098000FE0288EE91E00E940102BFEF24E38CE0BA
:10099000B15020408040E1F700C000000F90DF918F
:1009A000CF911F910F91FF90EF900895CF93DF9318
:1009B000EC0186EA92E00E94010284EC92E00E943F
:1009C000010221E030E047E054E060E0CE010E9407
:1009D0006001809308048091070464ED71E090E069
:1009E0000E94FE02809108046EED71E090E00E948A
:1009F000FE0288EE91E00E9401022FEF84E39CE06A
:100A0000215080409040E1F700C000008EED92E060
:100A10000E94010221E030E047E054E064E0CE01B2
:100A20000E94600180930804809107046CEF72E0DB
:100A300090E00E94FE02809108046EED71E090E06B
:100A40000E94FE0288EE91E00E9401022FEF84E3F3
:100A50009CE0215080409040E1F700C000008AE017
:100A600093E00E94010221E030E047E054E065E0BD
:100A7000CE010E946001809308048091070463E224
:100A800073E090E00E94FE02809108046EED71E038
:100A900090E00E94FE0288EE91E00E9401022FEF9A
:100AA00084E39CE0215080409040E1F700C00000CA
:100AB0008CE293E00E94010221E030E047E054E044
:100AC00066E0CE010E9460018093080480910704D3
:100AD00068E473E090E00E94FE02809108046EEDED
:100AE00071E090E00E94FE0288EE91E00E94010217
:100AF0002FEF84E39CE0215080409040E1F700C05C
:100B00000000DF91CF9108950F931F93CF93DF9350
:100B10008230910510F482E090E0E0910B04F091B6
:100B20000C0420E030E0A0E0B0E0309719F1408103
:100B300051810281138148175907C8F0841795071E
:100B400069F4109731F012960C93129713961C9338
:100B500027C000930B0410930C0422C0211531050B
:100B600019F04217530718F49A01BD01EF01DF0194
:100B7000F801DBCF21153105F9F0281B390B2430A2
:100B8000310580F48A819B816115710521F0FB019B
:100B90009383828304C090930C0480930B04FE0122
:100BA000329644C0FE01E20FF31F819391932250CD
:100BB0003109398328833AC02091090430910A040D
:100BC000232B41F4209102013091030130930A0458
:100BD0002093090420910001309101012115310574
:100BE00041F42DB73EB74091040150910501241BFB
:100BF000350BE0910904F0910A04E217F307A0F421
:100C00002E1B3F0B2817390778F0AC014E5F5F4F62
:100C10002417350748F04E0F5F1F50930A04409386
:100C200009048193919302C0E0E0F0E0CF01DF91ED
:100C3000CF911F910F910895CF93DF93009709F4FF
:100C400081C0FC01329713821282A0910B04B091F3
:100C50000C04109781F420813181820F931F209121
:100C6000090430910A042817390751F5F0930A0452
:100C7000E093090467C0ED0120E030E0CE17DF0704
:100C800040F44A815B819E0141155105F1F0EA0172
:100C9000F5CFD383C28340815181840F951FC8173C
:100CA000D90759F488819981840F951F0296918301
:100CB00080838A819B81938382832115310529F466
:100CC000F0930C04E0930B043DC0E901FB83EA833D
:100CD00049915991C40FD51FEC17FD0761F480812C
:100CE0009181840F951F0296E901998388838281FF
:100CF00093819B838A83E0E0F0E012968D919C9132
:100D00001397009719F0FD01DC01F7CF8D919C91AD
:100D100011979D012E5F3F4F820F931F2091090471
:100D200030910A042817390769F4309729F4109292
:100D30000C0410920B0402C013821282B0930A04B6
:100D4000A0930904DF91CF910895DC01FC01672F86
:100D500071917723E1F7329704C07C916D93708392
:0E0D60006291AE17BF07C8F30895F894FFCF55
:100D6E0000000D0420000101010101456E61626C5D
:100D7E00696E6720696E74657272757074732E2E4B
:100D8E002E00525820496E7465727275707420630D
:100D9E00616C6C65642E2E004345204C4F5700430A
:100DAE004520484947480057656C636F6D65207450
:100DBE006F2061746D656761333238500052756E05
:100DCE006E696E67206F6E626F6172642D64696109
:100DDE00676E6F73746963730053657474696E67BD
:100DEE00204E524632344C30312B20626567696E8C
:100DFE002066756E6374696F6E2E2E2E00496E69B5
:100E0E0074696174696E672053504920636F6D6D0C
:100E1E002E2E2E0057726974696E6720434F4E4610
:100E2E00494720726567697374657220696E205236
:100E3E00582E2E00434F4E4649473A202000535419
:100E4E00415455533A2020002D2D2D2D2D2D2D2D75
:100E5E002D2D2D2D2D2D2D2D2D2D0A0D00476F698C
:100E6E006E672061686561642E2E2E2E00456E61C0
:100E7E00626C696E67206175746F2D61636B6E6F46
:100E8E00776C6564676D656E742E2E2E00454E412F
:100E9E00413A202000456E61626C696E672064796C
:100EAE006E616D69632D7061796C6F6164206C6524
:100EBE006E6774682E2E2E0044594E50443A2020F0
:100ECE0000456E61626C696E6720474C4F42414C23
:100EDE002D44594E206C656E6774682E2E2E00467A
:100EEE004541545552453A20200044697361626C65
:100EFE00696E6720616C6C2052585F4144445245C4
:100F0E0053532E2E2E004C6F6767696E6720696EE5
:100F1E00666F2066726F6D2074686520626F6172F5
:100F2E00642E2E0052656164696E6720434F4E46F3
:100F3E0049472072656769737465722E2E0052657B
:100F4E006164696E672053455455505F5245545243
:100F5E002072656769737465722E2E005345545561
:100F6E00505F524554523A20200052656164696EBA
:100F7E00672052465F4348207265676973746572D5
:100F8E002E2E0052465F43483A202000526561647F
:100F9E00696E672052465F534554555020726567FF
:100FAE0069737465722E2E0052465F534554555028
:100FBE003A20200053656E64696E67206D73672E4C
:100FCE002E2E0057726974696E672054585F414423
:100FDE0044522E2E0057726974696E672054582041
:100FEE00746F20434F4E4649472E2E005265616462
:100FFE00696E672053544154555320726567697367
:10100E007465722E2E2E2E00436C656172696E67AA
:10101E0020545820696E74657272757074732E2E1A
:10102E000052656164696E672053544154555320D4
:10103E00726567697374657220414741494E2E2E61
:10104E002E2E0052656164696E6720434F4E4649ED
:10105E0047207265676973746572202852583D3057
:06106E00292E2E2E2E009B
:00000001FF
