S00A000074782E737265632E
S11300000C9434000C9494010C9451000C94510001
S11300100C9451000C9451000C9451000C94510018
S11300200C9451000C9451000C9451000C948501D3
S11300300C9451000C9451000C9451000C945100F8
S11300400C9451000C9451000C9451000C945100E8
S11300500C9451000C9451000C9451000C945100D8
S11300600C9451000C94510011241FBECFEFD8E022
S1130070DEBFCDBF14E0A0E0B1E0E8E3F6E102C0EA
S113008005900D92AC30B107D9F724E0ACE0B4E0B0
S113009001C01D92A631B207E1F70E94AE000C9494
S11300A01A0B0C940000ECE7F0E0808180648083FC
S11300B0EAE7F0E08081866880830895ECE7F0E069
S11300C09081907F8F70892B8083EAE7F0E08081B4
S11300D080648083808186FDFDCF8091780090913B
S11300E079000895CF93DF930E94C901EC0185E262
S11300F090E09983888322E02A839C838B8321E088
S11301002D839F838E8325E028879A87898723E020
S11301102B879D878C8784E08E87E9E6F0E08081D9
S113012082608083E89ACE010E94F703CE01DF91BA
S1130130CF910895E1E8F0E0808188608083AFE6A4
S1130140B0E08C9182608C9380E197E29093890077
S1130150809388008081846080830895CF93DF93A7
S1130160CDB7DEB7AC970FB6F894DEBF0FBECDBFE8
S113017085E0E6E0F1E0DE01119601900D928A95AA
S1130180E1F787B18C6087B988B1837F88B90E9411
S1130190530080E895E20E944E020E94A0037894E6
S11301A00E9472008C010E949A00BE016F5F7F4F13
S11301B0C8010E94F7020F2EF5E2AF2EF1E0BF2E28
S11301C0F02D6E012BE2C20ED11C4E0189E2880E85
S11301D0911C7E0198E0E90EF11C80910F048823A4
S11301E061F110920F04C8010E944103892B99F018
S11301F08BE091E00E947902C8010E942002439A98
S1130200EFE7F9EA23E0E150F0402040E1F700C0D5
S11302100000439812C0C8010E94200289E191E0C5
S11302200E947902429A8FE799EAE3E08150904074
S1130230E040E1F700C00000429880910E0488235A
S113024061F210920E0480E00E945E00BC0180E026
S113025090E00E9466062DEC3CEC4CEC52E40E94CB
S1130260C5050E94370660930C0470930D047F93B8
S11302706F93BF92AF92DF92CF920E94300881E0D9
S11302800E945E00BC0180E090E00E9466062DECB6
S11302903CEC4CEC52E40E94C5050E943706609386
S11302A00C0470930D047F936F93BF92AF929F924F
S11302B08F920E943008B401C6010E941508F6010D
S11302C080819181F70191838083F6018281F70116
S11302D0828388E291E00E945A02C7010E94790257
S11302E0F70101900020E9F7EE19E8A7AE014A5F93
S11302F05F4FBE016F5F7F4FC8010E949C020FB623
S1130300F894DEBF0FBECDBF68CF1F920F920FB619
S11303100F9211248F9381E080930E048F910F909C
S11303200FBE0F901F9018951F920F920FB60F9249
S113033011242F933F934F935F936F937F938F93E6
S11303409F93AF93BF93EF93FF9383E391E00E9456
S1130350790281E080930F04FF91EF91BF91AF91F7
S11303609F918F917F916F915F914F913F912F91C9
S11303700F900FBE0F901F901895FC01A62FB72F5A
S11303809C012B5F3F4F91919D93E217F307D9F79F
S1130390089580E190E00E94F40620E1FC011192AE
S11303A02A95E9F70895CF93DF93EC01DA01E88108
S11303B0F981508181E090E00A8002C0880F991F82
S11303C00A94E2F78095852380836EBD0DB407FE01
S11303D0FDCF8EB58F872115310579F0FD012A0FE8
S11303E03B1FDF0190819EBD0DB407FEFDCF9EB57E
S11303F09C933196E217F307A1F7E881F9812081F4
S113040081E090E00A8002C0880F991F0A94E2F705
S1130410822B80838F85DF91CF91089560620E9443
S1130420D30108950E94D301089520E030E040E014
S113043050E06FEF0E94D30108950E9415020895C1
S113044020E030E040E050E061EE0E94D3010895E6
S1130450CF93DF931F92CDB7DEB720E7298321E046
S113046030E0AE014F5F5F4F67E00E940E020F90D5
S1130470DF91CF910895CF93DF931F92CDB7DEB76D
S113048020E3298321E030E0AE014F5F5F4F67E056
S11304900E940E020F90DF91CF9108951092C50033
S11304A083E38093C40086E08093C20088E0809355
S11304B0C1000895CF93DF93FC0101900020E9F778
S11304C03197E81BF90B1E161F0684F4DC019C010E
S11304D02E0F3F1FC6ECD0E0E0ECF0E09D91988336
S11304E0908195FFFDCFA217B307C1F7DF91CF919C
S11304F00895CF93DF93FC0101900020E9F7319731
S1130500E81BF90B1E161F0684F4DC019C012E0F58
S11305103F1FC6ECD0E0E0ECF0E09D919883908121
S113052095FFFDCFA217B307C1F78AE292E00E94BC
S11305305A02DF91CF910895EF92FF920F931F9388
S1130540CF93DF931F92CDB7DEB78C017A018EE48F
S113055091E00E947902D70192962C9130E0A70194
S11305604E5F5F4F60EAC8010E94D30121E030E092
S1130570AE014F5F5F4F60E0C8010E9412028981A3
S11305808E7F898321E030E0AE014F5F5F4F60E0F2
S1130590C8010E940E0221E030E040E154E060E036
S11305A0C8010E9412028093110480FF03C0C80195
S11305B00E942002D8011396ED91FC91149720819A
S11305C081E090E015960C9002C0880F991F0A9460
S11305D0E2F7822B80838DE591E00E9479020F90EF
S11305E0DF91CF911F910F91FF90EF900895EF92BB
S11305F0FF920F931F93CF93DF9300D000D000D0CE
S1130600CDB7DEB78C017B0181E0898321E030E046
S1130610AE014F5F5F4F62E0C8010E940E02C80145
S11306200E943B0285E691E00E947902BE016E5F62
S11306307F4FC7010E94BD0125E030E0AE014E5F4F
S11306405F4F60E1C8010E940E02BE016E5F7F4FE2
S1130650C7010E94BD0125E030E0AE014E5F5F4F4F
S11306606AE0C8010E940E0226960FB6F894DEBF17
S11306700FBECDBFDF91CF911F910F91FF90EF90EF
S11306800895EF92FF920F931F93CF93DF931F92DE
S1130690CDB7DEB78C01DC011396ED91FC91149774
S11306A0208181E090E015960C9002C0880F991F7C
S11306B00A94E2F780958223808387E491E00E9484
S11306C07902C8010E941D02F801878585FD09C0D1
S11306D084FD0AC00F2EFEEFEF2EFF24FA94F02DB6
S11306E006C0E12CF12C03C0EE24EA94FE2CC801D0
S11306F00E943B0221E030E0AE014F5F5F4F60E0BB
S1130700C8010E94120289818160898321E030E05E
S1130710AE014F5F5F4F60E0C8010E940E02C70147
S11307200F90DF91CF911F910F91FF90EF9008955B
S11307308093C600E0ECF0E0808185FFFDCF089552
S1130740CF93DF9387E791E00E9479028DE891E0EF
S11307500E945A02CAE0D0E08EE20E9498032FEF72
S113076083EC99E0215080409040E1F700C0000004
S1130770219791F78CE292E00E947902DF91CF9168
S11307800895CF93DF93CDB7DEB729970FB6F894CA
S1130790DEBF0FBECDBFFE0131969E01275F3F4FE6
S11307A040E391E380FF02C0908301C040838695BB
S11307B03196E217F307B1F7CE0101960E942008A3
S11307C0CE0101960E94790229960FB6F894DEBFF5
S11307D00FBECDBFDF91CF910895CF93C82FCB012A
S11307E00E945A028C2F0E94C103CF910895EF9268
S11307F0FF920F931F93CF93DF931F92CDB7DEB772
S11308008C0189EA91E00E947902D801ED91FC9172
S113081011972291EE24E394F12CC70112960C90C7
S1130820129702C0880F991F0A94E2F7822B8083E3
S11308301396ED91FC9114972291C70115960C9093
S1130840159702C0880F991F0A94E2F7822B8083C0
S1130850ED91FC9111972081C70112960C9012978B
S113086002C0880F991F0A94E2F7822B80831396A3
S1130870ED91FC9114979081970115960C9002C00C
S1130880220F331F0A94E2F7822F809589238083F5
S113089087E491E00E9479028DEC91E00E94790254
S11308A08CB580618CBD8CB580648CBDD8011696E6
S11308B0ED91FC9117972291C70118960C90189707
S11308C002C0880F991F0A94E2F7822B808319963D
S11308D0ED91FC911A972291C7011B960C901B97DE
S11308E002C0880F991F0A94E2F7822B80831C961A
S11308F0ED91FC911D9782911E960C9002C0EE0C16
S1130900FF1C0A94E2F7E094E822E0828CB5877F2A
S11309108CBD8CB58B7F8CBD8CB58E7F8CBD8CB51E
S11309208D7F8CBD8DB581608DBD8CB58F7D8CBD6B
S113093020E030E040E050E062EEC8010E94D301C4
S113094020E030E040E050E061EEC8010E94D301B5
S1130950C8010E9428028FE0898384EE91E00E94FE
S11309607902BFEF21EE84E0B15020408040E1F7EE
S113097000C0000021E030E0AE014F5F5F4F60E057
S1130980C8010E940E0221E030E040E154E060E042
S1130990C8010E941202809311048091100464E043
S11309A072E090E00E94ED03809111046EE072E029
S11309B090E00E94ED0388E192E00E9479029FEFAB
S11309C0A4E3BCE09150A040B040E1F700C00000B7
S11309D08DE292E00E9479020F2EFFE3FF2EF02DAC
S11309E0F98221E030E0AE014F5F5F4F61E0C80162
S11309F00E940E028DE392E00E94790221E030E031
S1130A0040E154E061E0C8010E94120280931104A5
S1130A10809110046DE572E090E00E94ED038091F6
S1130A2011046EE072E090E00E94ED0388E192E030
S1130A300E9479022FEF84E39CE021508040904093
S1130A40E1F700C00000F98221E030E0AE014F5F21
S1130A505F4F6CE1C8010E940E0285E692E00E949D
S1130A60790221E030E040E154E06CE1C8010E94E9
S1130A701202809311048091100468E872E090E0FF
S1130A800E94ED03809111046EE072E090E00E94F8
S1130A90ED0388E192E00E947902AFEFB4E32CE029
S1130AA0A150B0402040E1F700C0000084E08983F9
S1130AB021E030E0AE014F5F5F4F6DE1C8010E945D
S1130AC00E0281E992E00E94790221E030E040E1E7
S1130AD054E06DE1C8010E941202809311048091D8
S1130AE010046FEA72E090E00E94ED03809111041B
S1130AF06EE072E090E00E94ED0388E192E00E94D3
S1130B0079028FEF94E3ACE081509040A040E1F78C
S1130B1000C00000198221E030E0AE014F5F5F4F5A
S1130B2062E0C8010E940E028AEB92E00E94790200
S1130B3021E030E040E154E062E0C8010E9412028A
S1130B4080931104809110046FEA72E090E00E9497
S1130B50ED03809111046EE072E090E00E94ED03D9
S1130B6088E192E00E947902BFEF24E38CE0B15067
S1130B7020408040E1F700C000000F90DF91CF914A
S1130B801F910F91FF90EF9008950E94D9050C9446
S1130B90BA060E94B30658F00E94AC0640F029F44D
S1130BA05F3F29F00C94A30651110C94EE060C94AB
S1130BB0A9060E94CB0668F39923B1F3552391F358
S1130BC0951B550BBB27AA2762177307840738F0B8
S1130BD09F5F5F4F220F331F441FAA1FA9F335D015
S1130BE00E2E3AF0E0E832D091505040E695001CC9
S1130BF0CAF72BD0FE2F29D0660F771F881FBB1F83
S1130C00261737074807AB07B0E809F0BB0B802D60
S1130C10BF01FF2793585F4F3AF09E3F510578F08C
S1130C200C94A3060C94EE065F3FE4F3983ED4F3D1
S1130C30869577956795B795F7959F5FC9F7880F60
S1130C40911D9695879597F90895E1E0660F771FB2
S1130C50881FBB1F621773078407BA0720F0621B43
S1130C60730B840BBA0BEE1F88F7E09508950E946E
S1130C70D30688F09F5798F0B92F9927B751B0F051
S1130C80E1F0660F771F881F991F1AF0BA95C9F70C
S1130C9014C0B13091F00E94ED06B1E008950C94B7
S1130CA0ED06672F782F8827B85F39F0B93FCCF36A
S1130CB0869577956795B395D9F73EF49095809589
S1130CC0709561957F4F8F4F9F4F0895E89409C0A9
S1130CD097FB3EF490958095709561957F4F8F4F6B
S1130CE09F4F9923A9F0F92F96E9BB279395F69581
S1130CF0879577956795B795F111F8CFFAF4BB0FFF
S1130D0011F460FF1BC06F5F7F4F8F4F9F4F16C062
S1130D10882311F096E911C0772321F09EE8872FEC
S1130D20762F05C0662371F096E8862F70E060E0A8
S1130D302AF09A95660F771F881FDAF7880F969521
S1130D40879597F9089597F99F6780E870E060E0C8
S1130D5008959FEF80EC089500240A941616170650
S1130D6018060906089500240A9412161306140698
S1130D7005060895092E0394000C11F4882352F0FB
S1130D80BB0F40F4BF2B11F460FF04C06F5F7F4FB3
S1130D908F4F9F4F089557FD9058440F551F59F09A
S1130DA05F3F71F04795880F97FB991F61F09F3F54
S1130DB079F087950895121613061406551FF2CF7D
S1130DC04695F1DF08C0161617061806991FF1CFCD
S1130DD086957105610508940895E894BB276627F4
S1130DE07727CB0197F908950F931F93CF93DF9340
S1130DF08230910510F482E090E0E0911404F091C7
S1130E00150420E030E0A0E0B0E0309719F1408113
S1130E1051810281138148175907C8F08417950737
S1130E2069F4109731F012960C93129713961C9351
S1130E3027C0009314041093150422C02115310512
S1130E4019F04217530718F49A01BD01EF01DF01AD
S1130E50F801DBCF21153105F9F0281B390B2430BB
S1130E60310580F48A819B816115710521F0FB01B4
S1130E709383828304C09093150480931404FE0129
S1130E80329644C0FE01E20FF31F819391932250E6
S1130E903109398328833AC0209112043091130414
S1130EA0232B41F420910201309103013093130468
S1130EB02093120420910001309101012115310584
S1130EC041F42DB73EB74091040150910501241B14
S1130ED0350BE0911204F0911304E217F307A0F428
S1130EE02E1B3F0B2817390778F0AC014E5F5F4F7C
S1130EF02417350748F04E0F5F1F50931304409397
S1130F0012048193919302C0E0E0F0E0CF01DF91FD
S1130F10CF911F910F910895CF93DF93009709F418
S1130F2081C0FC01329713821282A0911404B09103
S1130F301504109781F420813181820F931F209131
S1130F401204309113042817390751F5F093130450
S1130F50E093120467C0ED0120E030E0CE17DF0714
S1130F6040F44A815B819E0141155105F1F0EA018B
S1130F70F5CFD383C28340815181840F951FC81755
S1130F80D90759F488819981840F951F029691831A
S1130F9080838A819B81938382832115310529F47F
S1130FA0F0931504E09314043DC0E901FB83EA8344
S1130FB049915991C40FD51FEC17FD0761F4808145
S1130FC09181840F951F0296E90199838883828118
S1130FD093819B838A83E0E0F0E012968D919C914B
S1130FE01397009719F0FD01DC01F7CF8D919C91C7
S1130FF011979D012E5F3F4F820F931F2091120482
S1131000309113042817390769F4309729F41092A2
S113101015041092140402C013821282B0931304B4
S1131020A0931204DF91CF910895FB01DC010D9090
S11310300020E9F7119701900D920020E1F708953F
S1131040DC01FC01672F71917723E1F7329704C02B
S11310507C916D9370836291AE17BF07C8F30895B6
S1131060AEE0B0E0E6E3F8E00C94F10A0D891E89E5
S113107086E08C831A8309838FEF9FE79E838D8399
S1131080AE01475E5F4F6F89788DCE0101960E9455
S11310905208EF81F885E00FF11F10822E96E4E0EC
S11310A00C940D0BABE0B0E0E8E5F8E00C94E30A37
S11310B06C017B018A01FC0117821682838181FF06
S11310C0CCC1CE0101963C01F6019381F70193FD59
S11310D0859193FF81917F01882309F4BAC18532F8
S11310E039F493FD859193FF81917F01853229F431
S11310F0B60190E00E94490AE7CF912C212C312CB3
S1131100FFE1F315D8F08B3279F038F4803279F0BE
S11311108332A1F4232D20611DC08D3261F0803310
S113112069F4232D216016C0832D8260382EE32DAF
S1131130E4603E2E2AC0F32DF8601DC037FC2DC09C
S113114020ED280F2A3040F08E32B9F436FC81C1EC
S1131150232D2064322E19C036FE06C08AE0989EE4
S1131160200D1124922E11C0EAE02E9E200D112490
S1131170222EF32DF0623F2E08C08C3621F4832DED
S11311808068382E02C0883641F4F70193FD8591BA
S113119093FF81917F018111B3CF982F9F7D955447
S11311A0933028F40C5F1F4F9FE399830DC083365F
S11311B031F0833771F0833509F059C021C0F8014B
S11311C0808189830E5F1F4F88248394912C53015F
S11311D013C02801F2E04F0E511CF801A080B18029
S11311E036FE03C0692D70E002C06FEF7FEFC501CA
S11311F00E943E0A4C018201F32DFF773F2E16C058
S1131200280122E0420E511CF801A080B18036FE74
S113121003C0692D70E002C06FEF7FEFC5010E942B
S1131220330A4C01F32DF0683F2E820133FC1BC0BE
S1131230822D90E088169906B0F4B60180E290E021
S11312400E94490A2A94F4CFF50137FC859137FEB0
S113125081915F01B60190E00E94490A21102A940D
S113126021E0821A91088114910471F7E8C0843650
S113127011F0893641F5F80137FE07C060817181AC
S1131280828193810C5F1F4F08C060817181072E9A
S1131290000C880B990B0E5F1F4FF32DFF763F2E2A
S11312A097FF09C090958095709561957F4F8F4FFA
S11312B09F4FF0683F2E2AE030E0A3010E94850A88
S11312C0882E861845C0853731F4232D2F7EB22E03
S11312D02AE030E025C0932D997FB92E8F36C1F0D6
S11312E018F4883579F0B5C0803719F0883721F0C3
S11312F0B0C0E92FE061BE2EB4FE0DC0FB2DF4603A
S1131300BF2E09C034FE0AC0292F2660B22E06C0A3
S113131028E030E005C020E130E002C020E132E006
S1131320F801B7FE07C060817181828193810C5FEF
S11313301F4F06C06081718180E090E00E5F1F4FF7
S1131340A3010E94850A882E8618FB2DFF773F2E65
S113135036FE0DC0232D2E7FA22E891458F434FEA0
S11313600BC032FC09C0832D8E7EA82E05C0B82C7C
S1131370A32C03C0B82C01C0B92CA4FE0FC0FE01DD
S1131380E80DF11D8081803321F49A2D997EA92ED8
S113139009C0A2FE06C0B394B39404C08A2D867813
S11313A009F0B394A3FC11C0A0FE06C0B21488F4E3
S11313B0280C922C9B180EC0B21460F4B60180E283
S11313C090E00E94490AB394F7CFB21418F42B1892
S11313D002C0982C212CA4FE10C0B60180E390E03A
S11313E00E94490AA2FE17C0A1FC03C088E790E04E
S11313F002C088E590E0B6010CC08A2D867859F0C9
S1131400A1FE02C08BE201C080E2A7FC8DE2B6011E
S113141090E00E94490A891438F4B60180E390E010
S11314200E94490A9A94F7CF8A94F301E80DF11DBA
S11314308081B60190E00E94490A8110F5CF2220F4
S113144009F442CEB60180E290E00E94490A2A944F
S1131450F6CFF6018681978102C08FEF9FEF2B961E
S1131460E2E10C94FF0AFC01059061507040011008
S1131470D8F7809590958E0F9F1F0895FC016150B9
S1131480704001900110D8F7809590958E0F9F1FA2
S113149008950F931F93CF93DF93FB01238121FDC5
S11314A003C08FEF9FEF2CC022FF16C046815781E7
S11314B0248135814217530744F4A081B1819D01F1
S11314C02F5F3F4F318320838C93268137812F5F99
S11314D03F4F3783268314C08B01EC01FB0100844A
S11314E0F185E02D0995892BE1F6D80116968D91A9
S11314F09C911797019617969C938E931697CE01FD
S1131500DF91CF911F910F910895FA01AA272830F6
S113151051F1203181F1E8946F936E7F6E5F7F4FBC
S11315208F4F9F4FAF4FB1E03ED0B4E03CD0670F38
S1131530781F891F9A1FA11D680F791F8A1F911D8B
S1131540A11D6A0F711D811D911DA11D20D009F4DB
S113155068943F912AE0269F11243019305D31931D
S1131560DEF6CF010895462F4770405D4193B3E006
S11315700FD0C9F7F6CF462F4F70405D4A3318F0AD
S1131580495D31FD4052419302D0A9F7EACFB4E05E
S1131590A6959795879577956795BA95C9F7009716
S11315A06105710508959B01AC010A2E06945795B7
S11315B0479537952795BA95C9F7620F731F841F0E
S11315C0951FA01D08952F923F924F925F926F92A4
S11315D07F928F929F92AF92BF92CF92DF92EF92BF
S11315E0FF920F931F93CF93DF93CDB7DEB7CA1B40
S11315F0DB0B0FB6F894DEBF0FBECDBF09942A886B
S1131600398848885F846E847D848C849B84AA8412
S1131610B984C884DF80EE80FD800C811B81AA819F
S1131620B981CE0FD11D0FB6F894DEBF0FBECDBF6A
S10B1630ED010895F894FFCFC9
S11316380000160420000101010101427566666577
S1131648722046554C4C2E2E004D53472053656E40
S1131658742E2E2E002564004D53472044415441D6
S11316683A2000496E746572727570742063616CF7
S11316786C65642E2E2E004345204C4F570053654D
S11316886E64696E67206D73672E2E2E00434520A5
S1131698484947480057726974696E672054585F0F
S11316A8414444522E2E0057656C636F6D65207457
S11316B86F2061746D656761333238500052756EFE
S11316C86E696E67206F6E626F6172642D64696102
S11316D8676E6F73746963730053657474696E67B6
S11316E8204E524632344C30312B20626567696E85
S11316F82066756E6374696F6E2E2E2E00496E69AE
S113170874696174696E672053504920636F6D6D05
S11317182E2E2E0057726974696E6720434F4E4609
S1131728494720726567697374657220696E20522F
S1131738582E2E00434F4E4649473A202000535412
S1131748415455533A2020002D2D2D2D2D2D2D2D6E
S11317582D2D2D2D2D2D2D2D2D2D0A0D00476F6985
S11317686E672061686561642E2E2E2E00456E61B9
S1131778626C696E67206175746F2D61636B6E6F3F
S1131788776C6564676D656E742E2E2E00454E4128
S1131798413A202000456E61626C696E6720647965
S11317A86E616D69632D7061796C6F6164206C651D
S11317B86E6774682E2E2E0044594E50443A2020E9
S11317C800456E61626C696E6720474C4F42414C1C
S11317D82D44594E206C656E6774682E2E2E004673
S11317E84541545552453A20200044697361626C5E
S11317F8696E6720616C6C2052585F4144445245BD
S113180853532E2E2E004C697374656E696E6720CF
S11318184D4F444520656E61626C65642E2E2E2EF4
S11318280057726974696E672061646472657373C2
S113183820746F2052585F414444525F504F005205
S1131848656164696E67207772697474656E206176
S11318586464726573732E2E0020202052585F41F1
S11318684444525F50303A202000456E61626C69EE
S11318786E6720676976656E20506970652D300043
S1131888454E5F5258414444523A20200052656103
S113189864696E6720434F4E4649472072656769FD
S11318A8737465722E2E004C6F6767696E672069C2
S11318B86E666F2066726F6D2074686520626F6152
S11318C872642E2E0052656164696E672053455414
S11318D855505F5245545220726567697374657236
S11318E82E2E0053455455505F524554523A2020E9
S11318F80052656164696E672052465F43482072EE
S1131908656769737465722E2E0052465F43483AC0
S113191820200052656164696E672052465F534512
S11319285455502072656769737465722E2E00527F
S10F1938465F53455455503A20200000EF
S9030000FC
